{
  "contractName": "SimpleVIN",
  "abi": [
    {
      "constant": true,
      "inputs": [],
      "name": "report",
      "outputs": [
        {
          "internalType": "string",
          "name": "vin",
          "type": "string"
        },
        {
          "internalType": "string",
          "name": "brand",
          "type": "string"
        },
        {
          "internalType": "string",
          "name": "model",
          "type": "string"
        },
        {
          "internalType": "string",
          "name": "immatDate",
          "type": "string"
        },
        {
          "internalType": "bool",
          "name": "exists",
          "type": "bool"
        }
      ],
      "payable": false,
      "stateMutability": "view",
      "type": "function"
    },
    {
      "constant": false,
      "inputs": [
        {
          "internalType": "string",
          "name": "_vin",
          "type": "string"
        },
        {
          "internalType": "string",
          "name": "_brand",
          "type": "string"
        },
        {
          "internalType": "string",
          "name": "_model",
          "type": "string"
        },
        {
          "internalType": "string",
          "name": "_immatDate",
          "type": "string"
        }
      ],
      "name": "createReport",
      "outputs": [],
      "payable": false,
      "stateMutability": "nonpayable",
      "type": "function"
    }
  ],
  "bytecode": "0x608060405234801561001057600080fd5b5061080a806100206000396000f3fe608060405234801561001057600080fd5b50600436106100365760003560e01c80632606a10b1461003b578063d10d600b146101f8575b600080fd5b61004361042d565b60405180806020018060200180602001806020018615151515815260200185810385528a818151815260200191508051906020019080838360005b8381101561009657818101518382015260200161007e565b50505050905090810190601f1680156100c35780820380516001836020036101000a031916815260200191505b5085810384528951815289516020918201918b019080838360005b838110156100f65781810151838201526020016100de565b50505050905090810190601f1680156101235780820380516001836020036101000a031916815260200191505b5085810383528851815288516020918201918a019080838360005b8381101561015657818101518382015260200161013e565b50505050905090810190601f1680156101835780820380516001836020036101000a031916815260200191505b50858103825287518152875160209182019189019080838360005b838110156101b657818101518382015260200161019e565b50505050905090810190601f1680156101e35780820380516001836020036101000a031916815260200191505b50995050505050505050505060405180910390f35b61042b6004803603608081101561020e57600080fd5b810190602081018135600160201b81111561022857600080fd5b82018360208201111561023a57600080fd5b803590602001918460018302840111600160201b8311171561025b57600080fd5b91908080601f0160208091040260200160405190810160405280939291908181526020018383808284376000920191909152509295949360208101935035915050600160201b8111156102ad57600080fd5b8201836020820111156102bf57600080fd5b803590602001918460018302840111600160201b831117156102e057600080fd5b91908080601f0160208091040260200160405190810160405280939291908181526020018383808284376000920191909152509295949360208101935035915050600160201b81111561033257600080fd5b82018360208201111561034457600080fd5b803590602001918460018302840111600160201b8311171561036557600080fd5b91908080601f0160208091040260200160405190810160405280939291908181526020018383808284376000920191909152509295949360208101935035915050600160201b8111156103b757600080fd5b8201836020820111156103c957600080fd5b803590602001918460018302840111600160201b831117156103ea57600080fd5b91908080601f016020809104026020016040519081016040528093929190818152602001838380828437600092019190915250929550610688945050505050565b005b60008054604080516020601f600260001961010060018816150201909516949094049384018190048102820181019092528281529183918301828280156104b55780601f1061048a576101008083540402835291602001916104b5565b820191906000526020600020905b81548152906001019060200180831161049857829003601f168201915b505050505090806001018054600181600116156101000203166002900480601f0160208091040260200160405190810160405280929190818152602001828054600181600116156101000203166002900480156105535780601f1061052857610100808354040283529160200191610553565b820191906000526020600020905b81548152906001019060200180831161053657829003601f168201915b50505060028085018054604080516020601f60001961010060018716150201909416959095049283018590048502810185019091528181529596959450909250908301828280156105e55780601f106105ba576101008083540402835291602001916105e5565b820191906000526020600020905b8154815290600101906020018083116105c857829003601f168201915b5050505060038301805460408051602060026001851615610100026000190190941693909304601f81018490048402820184019092528181529495949350908301828280156106755780601f1061064a57610100808354040283529160200191610675565b820191906000526020600020905b81548152906001019060200180831161065857829003601f168201915b5050506004909301549192505060ff1685565b6040805160a08101825285815260208082018690529181018490526060810183905260016080820152855190916000916106c79183919089019061073a565b5060208281015180516106e0926001850192019061073a565b50604082015180516106fc91600284019160209091019061073a565b506060820151805161071891600384019160209091019061073a565b50608091909101516004909101805460ff191691151591909117905550505050565b828054600181600116156101000203166002900490600052602060002090601f016020900481019282601f1061077b57805160ff19168380011785556107a8565b828001600101855582156107a8579182015b828111156107a857825182559160200191906001019061078d565b506107b49291506107b8565b5090565b6107d291905b808211156107b457600081556001016107be565b9056fea265627a7a723158203f5aeacdb5f5e27d9d488c90aa242860bd356eb2fb92716bd546b2e460b7b28664736f6c63430005100032",
  "source": "pragma solidity >=0.4.21 <0.7.0;\n\ncontract SimpleVIN {\n    \n  struct Report{\n    string vin;  \n    string brand;\n    string model;\n    string immatDate;\n    bool exists;\n  }\n  \n  Report public report;\n  \n  function createReport(string memory _vin, string memory _brand, string memory _model, string memory _immatDate) public {\n    report = Report(_vin, _brand, _model, _immatDate, true);\n    \n  }\n}\n",
  "sourcePath": "/Users/mohamedaimendjari/truffle/contracts/SimpleVIN.sol",
  "compiler": {
    "name": "solc",
    "version": "0.5.16+commit.9c3226ce.Emscripten.clang"
  },
  "schemaVersion": "3.2.0",
  "updatedAt": "2020-05-28T22:15:13.962Z",
  "networkType": "ethereum",
  "devdoc": {
    "methods": {}
  },
  "userdoc": {
    "methods": {}
  }
}